:020000040000FA
:10000000600100206D0200008102000083020000F8
:100010008502000087020000890200000000000045
:100020000000000000000000000000008B02000043
:100030008D020000000000008F020000910200000D
:10004000930200009302000093020000930200005C
:10005000930200009302000093020000930200004C
:10006000930200009302000093020000930200003C
:10007000930200009302000093020000930200002C
:10008000930200009302000093020000930200001C
:10009000930200009302000093020000930200000C
:1000A00093020000930200009302000093020000FC
:1000B00093020000930200009302000093020000EC
:1000C00093020000930200009302000093020000DC
:1000D00093020000930200009302000093020000CC
:1000E00093020000930200009302000093020000BC
:1000F00093020000930200009302000093020000AC
:10010000930200009302000093020000930200009B
:10011000930200009302000093020000930200008B
:10012000930200009302000093020000930200007B
:10013000930200009302000093020000930200006B
:1001400000000000000000000000000000000000AF
:10015000930200009302000093020000930200004B
:10016000000000000000000000000000000000008F
:10017000000000000000000000000000000000007F
:10018000000000000000000000000000000000006F
:10019000000000000000000000000000000000005F
:1001A000000000000000000000000000000000004F
:1001B00093020000930200009302000093020000EB
:1001C00093020000930200009302000093020000DB
:1001D00093020000930200009302000093020000CB
:1001E00093020000930200009302000093020000BB
:1001F00093020000930200009302000093020000AB
:10020000930200009302000093020000000000002F
:10021000930200009302000093020000930200008A
:10022000930200009302000093020000930200007A
:10023000930200009302000093020000930200006A
:10024000930200009302000093020000930200005A
:10025000930200009302000093020000930200004A
:100260009302000093020000930200004EF68850B3
:10027000CEF20000016841F47001016000F056B850
:10028000FEE7FEE7FEE7FEE7FEE7FEE7FEE7FEE746
:10029000FEE7FEE700F002F800F02EF80AA090E872
:1002A000000C82448344AAF10107DA4501D100F031
:1002B00023F8AFF2090EBAE80F0013F0010F18BFD0
:1002C000FB1A43F001031847C0020000D0020000EF
:1002D0000023002400250026103A28BF78C1FBD84F
:1002E000520728BF30C148BF0B6070471FB500F0F0
:1002F00046F91FBD10B510BD00F00AF91146FFF711
:10030000F5FF00F013F800F028F903B4FFF7F2FF4F
:1003100003BC00F02DF9000000BF6049896911F0AD
:10032000100FFAD15D490968C8B270475C49096885
:1003300041F002015A4A116059491039096841F0E7
:100340001A01574A103A11600321564A11601121CF
:10035000554A11600321544A103A11604F49096B04
:1003600021F001014D4A1163682151620B21916214
:100370006021D16200214D4A116040F20131474AAB
:10038000116306214A4A11604A4A11604A490968C4
:1003900021F00601494AC2F8FC134FF00201484A15
:1003A0001160484A11604849D1F8FC1321F002015C
:1003B000464A11604FF00201454A1160454A1160FA
:1003C0004549D1F8FC1321F00201434AC2F8FC135D
:1003D00063E0FFF7A1FF312804D0322813D033287F
:1003E0002AD121E03949096811F0020105D002291A
:1003F00007D1491F354A116003E00221334A1160D9
:1004000000BF00BF1FE03549096811F0020105D0A7
:10041000022907D1491F314A116003E002212F4A06
:10042000116000BF00BF0EE06FF00201274A1160AB
:10043000294AC2F8FC1306E00221244A1160264A28
:10044000C2F8FC1300BF00BF2049096811F0020187
:1004500012D0022920D12149096811F0020105D0EA
:10046000022907D10021144A116003E00421124A35
:10047000116000BF00BF0FE01849096811F00201C8
:1004800004D0022906D10C4A116003E006210A4A71
:10049000116000BF00BF00BF00BF9AE700D000405E
:1004A00018E60F40205400402C550040C8DF0040A3
:1004B000005402401C550240FC53024000500240D0
:1004C000007400401C75004000700040FC73004048
:1004D000004402401C45024000400240FC430240F0
:1004E00072B6704762B67047EFF3108072B670470D
:1004F00080F31088704730BF704702480249014AB4
:10050000024B704760000020600100206000002066
:10051000754600F029F8AE4605006946534620F0BE
:100520000700854618B020B5FFF7E7FFBDE820407B
:100530004FF000064FF000074FF000084FF0000B9F
:1005400021F00701AC46ACE8C009ACE8C009ACE852
:10055000C009ACE8C0098D4670470446AFF300807F
:100560002046FFF7D2FE0000004870470000002040
:1005700001491820ABBEFEE72600020070474FF08D
:100580004070E1EE100A704798050000000000205E
:0805900060010000D002000030
:040000050000026D88
:00000001FF
